{
  "contractName": "MultisigWallet",
  "abi": [
    {
      "inputs": [
        {
          "internalType": "address[]",
          "name": "_owners",
          "type": "address[]"
        },
        {
          "internalType": "uint256",
          "name": "_required",
          "type": "uint256"
        }
      ],
      "stateMutability": "nonpayable",
      "type": "constructor"
    },
    {
      "anonymous": false,
      "inputs": [
        {
          "indexed": true,
          "internalType": "address",
          "name": "sender",
          "type": "address"
        },
        {
          "indexed": true,
          "internalType": "uint256",
          "name": "transactionId",
          "type": "uint256"
        }
      ],
      "name": "Confirmation",
      "type": "event"
    },
    {
      "anonymous": false,
      "inputs": [
        {
          "indexed": true,
          "internalType": "address",
          "name": "sender",
          "type": "address"
        },
        {
          "indexed": false,
          "internalType": "uint256",
          "name": "value",
          "type": "uint256"
        }
      ],
      "name": "Deposit",
      "type": "event"
    },
    {
      "anonymous": false,
      "inputs": [
        {
          "indexed": true,
          "internalType": "uint256",
          "name": "transactionId",
          "type": "uint256"
        }
      ],
      "name": "Execution",
      "type": "event"
    },
    {
      "anonymous": false,
      "inputs": [
        {
          "indexed": true,
          "internalType": "uint256",
          "name": "transactionId",
          "type": "uint256"
        }
      ],
      "name": "ExecutionFailure",
      "type": "event"
    },
    {
      "anonymous": false,
      "inputs": [
        {
          "indexed": true,
          "internalType": "uint256",
          "name": "transactionId",
          "type": "uint256"
        }
      ],
      "name": "Submission",
      "type": "event"
    },
    {
      "anonymous": false,
      "inputs": [
        {
          "indexed": true,
          "internalType": "address",
          "name": "to",
          "type": "address"
        },
        {
          "indexed": false,
          "internalType": "uint256",
          "name": "value",
          "type": "uint256"
        }
      ],
      "name": "withdraw",
      "type": "event"
    },
    {
      "inputs": [],
      "name": "MAX_OWNER",
      "outputs": [
        {
          "internalType": "uint256",
          "name": "",
          "type": "uint256"
        }
      ],
      "stateMutability": "view",
      "type": "function",
      "constant": true
    },
    {
      "inputs": [
        {
          "internalType": "uint256",
          "name": "",
          "type": "uint256"
        },
        {
          "internalType": "address",
          "name": "",
          "type": "address"
        }
      ],
      "name": "confirmations",
      "outputs": [
        {
          "internalType": "bool",
          "name": "",
          "type": "bool"
        }
      ],
      "stateMutability": "view",
      "type": "function",
      "constant": true
    },
    {
      "inputs": [
        {
          "internalType": "address",
          "name": "",
          "type": "address"
        }
      ],
      "name": "isOwner",
      "outputs": [
        {
          "internalType": "bool",
          "name": "",
          "type": "bool"
        }
      ],
      "stateMutability": "view",
      "type": "function",
      "constant": true
    },
    {
      "inputs": [
        {
          "internalType": "uint256",
          "name": "",
          "type": "uint256"
        }
      ],
      "name": "owners",
      "outputs": [
        {
          "internalType": "address",
          "name": "",
          "type": "address"
        }
      ],
      "stateMutability": "view",
      "type": "function",
      "constant": true
    },
    {
      "inputs": [],
      "name": "required",
      "outputs": [
        {
          "internalType": "uint256",
          "name": "",
          "type": "uint256"
        }
      ],
      "stateMutability": "view",
      "type": "function",
      "constant": true
    },
    {
      "inputs": [],
      "name": "transactionCount",
      "outputs": [
        {
          "internalType": "uint256",
          "name": "",
          "type": "uint256"
        }
      ],
      "stateMutability": "view",
      "type": "function",
      "constant": true
    },
    {
      "inputs": [
        {
          "internalType": "uint256",
          "name": "",
          "type": "uint256"
        }
      ],
      "name": "transactions",
      "outputs": [
        {
          "internalType": "address",
          "name": "destination",
          "type": "address"
        },
        {
          "internalType": "uint256",
          "name": "value",
          "type": "uint256"
        },
        {
          "internalType": "bool",
          "name": "executed",
          "type": "bool"
        }
      ],
      "stateMutability": "view",
      "type": "function",
      "constant": true
    },
    {
      "inputs": [],
      "name": "deposit",
      "outputs": [],
      "stateMutability": "payable",
      "type": "function",
      "payable": true
    },
    {
      "inputs": [
        {
          "internalType": "address",
          "name": "destination",
          "type": "address"
        },
        {
          "internalType": "uint256",
          "name": "value",
          "type": "uint256"
        }
      ],
      "name": "submitTransaction",
      "outputs": [
        {
          "internalType": "uint256",
          "name": "transactionId",
          "type": "uint256"
        }
      ],
      "stateMutability": "nonpayable",
      "type": "function"
    },
    {
      "inputs": [
        {
          "internalType": "uint256",
          "name": "transactionId",
          "type": "uint256"
        }
      ],
      "name": "confirmTransaction",
      "outputs": [],
      "stateMutability": "nonpayable",
      "type": "function"
    },
    {
      "inputs": [
        {
          "internalType": "uint256",
          "name": "transactionId",
          "type": "uint256"
        }
      ],
      "name": "executeTransation",
      "outputs": [],
      "stateMutability": "nonpayable",
      "type": "function"
    },
    {
      "inputs": [
        {
          "internalType": "uint256",
          "name": "transactionId",
          "type": "uint256"
        }
      ],
      "name": "isConfirmed",
      "outputs": [
        {
          "internalType": "bool",
          "name": "",
          "type": "bool"
        }
      ],
      "stateMutability": "view",
      "type": "function",
      "constant": true
    },
    {
      "inputs": [
        {
          "internalType": "uint256",
          "name": "transactionId",
          "type": "uint256"
        }
      ],
      "name": "getConfirmationCount",
      "outputs": [
        {
          "internalType": "uint256",
          "name": "count",
          "type": "uint256"
        }
      ],
      "stateMutability": "view",
      "type": "function",
      "constant": true
    }
  ],
  "bytecode": "0x60806040523480156200001157600080fd5b50604051620012b8380380620012b8833981810160405260408110156200003757600080fd5b81019080805160405193929190846401000000008211156200005857600080fd5b838201915060208201858111156200006f57600080fd5b82518660208202830111640100000000821117156200008d57600080fd5b8083526020830192505050908051906020019060200280838360005b83811015620000c6578082015181840152602081019050620000a9565b505050509050016040526020018051906020019092919050505081518160058211158015620000f55750818111155b801562000103575060008114155b801562000111575060008214155b6200011b57600080fd5b60008090505b84518110156200025f57600260008683815181106200013c57fe5b602002602001015173ffffffffffffffffffffffffffffffffffffffff1673ffffffffffffffffffffffffffffffffffffffff16815260200190815260200160002060009054906101000a900460ff16158015620001db5750600073ffffffffffffffffffffffffffffffffffffffff16858281518110620001ba57fe5b602002602001015173ffffffffffffffffffffffffffffffffffffffff1614155b620001e557600080fd5b600160026000878481518110620001f857fe5b602002602001015173ffffffffffffffffffffffffffffffffffffffff1673ffffffffffffffffffffffffffffffffffffffff16815260200190815260200160002060006101000a81548160ff021916908315150217905550808060010191505062000121565b508360039080519060200190620002789291906200028a565b5082600481905550505050506200035f565b82805482825590600052602060002090810192821562000306579160200282015b82811115620003055782518260006101000a81548173ffffffffffffffffffffffffffffffffffffffff021916908373ffffffffffffffffffffffffffffffffffffffff16021790555091602001919060010190620002ab565b5b50905062000315919062000319565b5090565b6200035c91905b808211156200035857600081816101000a81549073ffffffffffffffffffffffffffffffffffffffff02191690555060010162000320565b5090565b90565b610f49806200036f6000396000f3fe6080604052600436106100c25760003560e01c8063784547a71161007f578063b77bf60011610059578063b77bf60014610422578063c01a8c841461044d578063d0e30db014610488578063dc8452cd14610492576100c2565b8063784547a7146102f35780638b51d13f146103465780639ace38c214610395576100c2565b8063025e7c27146100c75780631d43b653146101425780632f54bf6e146101b15780633411c81c1461021a578063391c75d71461028d57806372688111146102c8575b600080fd5b3480156100d357600080fd5b50610100600480360360208110156100ea57600080fd5b81019080803590602001909291905050506104bd565b604051808273ffffffffffffffffffffffffffffffffffffffff1673ffffffffffffffffffffffffffffffffffffffff16815260200191505060405180910390f35b34801561014e57600080fd5b5061019b6004803603604081101561016557600080fd5b81019080803573ffffffffffffffffffffffffffffffffffffffff169060200190929190803590602001909291905050506104f9565b6040518082815260200191505060405180910390f35b3480156101bd57600080fd5b50610200600480360360208110156101d457600080fd5b81019080803573ffffffffffffffffffffffffffffffffffffffff169060200190929190505050610516565b604051808215151515815260200191505060405180910390f35b34801561022657600080fd5b506102736004803603604081101561023d57600080fd5b8101908080359060200190929190803573ffffffffffffffffffffffffffffffffffffffff169060200190929190505050610536565b604051808215151515815260200191505060405180910390f35b34801561029957600080fd5b506102c6600480360360208110156102b057600080fd5b8101908080359060200190929190505050610565565b005b3480156102d457600080fd5b506102dd61083a565b6040518082815260200191505060405180910390f35b3480156102ff57600080fd5b5061032c6004803603602081101561031657600080fd5b810190808035906020019092919050505061083f565b604051808215151515815260200191505060405180910390f35b34801561035257600080fd5b5061037f6004803603602081101561036957600080fd5b8101908080359060200190929190505050610924565b6040518082815260200191505060405180910390f35b3480156103a157600080fd5b506103ce600480360360208110156103b857600080fd5b81019080803590602001909291905050506109ed565b604051808473ffffffffffffffffffffffffffffffffffffffff1673ffffffffffffffffffffffffffffffffffffffff16815260200183815260200182151515158152602001935050505060405180910390f35b34801561042e57600080fd5b50610437610a44565b6040518082815260200191505060405180910390f35b34801561045957600080fd5b506104866004803603602081101561047057600080fd5b8101908080359060200190929190505050610a4a565b005b610490610d72565b005b34801561049e57600080fd5b506104a7610dcc565b6040518082815260200191505060405180910390f35b600381815481106104ca57fe5b906000526020600020016000915054906101000a900473ffffffffffffffffffffffffffffffffffffffff1681565b60006105058383610dd2565b905061051081610a4a565b92915050565b60026020528060005260406000206000915054906101000a900460ff1681565b60016020528160005260406000206020528060005260406000206000915091509054906101000a900460ff1681565b33600260008273ffffffffffffffffffffffffffffffffffffffff1673ffffffffffffffffffffffffffffffffffffffff16815260200190815260200160002060009054906101000a900460ff16610625576040517f08c379a000000000000000000000000000000000000000000000000000000000815260040180806020018281038252600b8152602001807f6f776e657245786973747300000000000000000000000000000000000000000081525060200191505060405180910390fd5b81336001600083815260200190815260200160002060008273ffffffffffffffffffffffffffffffffffffffff1673ffffffffffffffffffffffffffffffffffffffff16815260200190815260200160002060009054906101000a900460ff1661068e57600080fd5b8360008082815260200190815260200160002060020160009054906101000a900460ff16156106bc57600080fd5b6106c58561083f565b156107d757600160008087815260200190815260200160002060020160006101000a81548160ff021916908315150217905550600080600087815260200190815260200160002060000160009054906101000a900473ffffffffffffffffffffffffffffffffffffffff169050600047600080898152602001908152602001600020600101548161075257fe5b0690508173ffffffffffffffffffffffffffffffffffffffff167ff3fef3a3f44f9c277339b67d54f015748bd8d6b77a985b0ab6e71126b018c34a826040518082815260200191505060405180910390a2867f33e13ecb54c3076d8e8bb8c2881800a4d972b792045ffae98fdf46df365fed7560405160405180910390a25050610833565b847f526441bb6c1aba3c9a4a6ca1d6545da9c2333c8c48343ef398eb858d72b7923660405160405180910390a2600080600087815260200190815260200160002060020160006101000a81548160ff0219169083151502179055505b5050505050565b600581565b6000806000905060008090505b60038054905081101561091c576001600085815260200190815260200160002060006003838154811061087b57fe5b9060005260206000200160009054906101000a900473ffffffffffffffffffffffffffffffffffffffff1673ffffffffffffffffffffffffffffffffffffffff1673ffffffffffffffffffffffffffffffffffffffff16815260200190815260200160002060009054906101000a900460ff16156108fa576001820191505b60045482141561090f5760019250505061091f565b808060010191505061084c565b50505b919050565b600080600090505b6003805490508110156109e7576001600084815260200190815260200160002060006003838154811061095b57fe5b9060005260206000200160009054906101000a900473ffffffffffffffffffffffffffffffffffffffff1673ffffffffffffffffffffffffffffffffffffffff1673ffffffffffffffffffffffffffffffffffffffff16815260200190815260200160002060009054906101000a900460ff16156109da576001820191505b808060010191505061092c565b50919050565b60006020528060005260406000206000915090508060000160009054906101000a900473ffffffffffffffffffffffffffffffffffffffff16908060010154908060020160009054906101000a900460ff16905083565b60055481565b33600260008273ffffffffffffffffffffffffffffffffffffffff1673ffffffffffffffffffffffffffffffffffffffff16815260200190815260200160002060009054906101000a900460ff16610b0a576040517f08c379a000000000000000000000000000000000000000000000000000000000815260040180806020018281038252600b8152602001807f6f776e657245786973747300000000000000000000000000000000000000000081525060200191505060405180910390fd5b81600073ffffffffffffffffffffffffffffffffffffffff1660008083815260200190815260200160002060000160009054906101000a900473ffffffffffffffffffffffffffffffffffffffff1673ffffffffffffffffffffffffffffffffffffffff161415610be3576040517f08c379a00000000000000000000000000000000000000000000000000000000081526004018080602001828103825260118152602001807f7472616e73616374696f6e45786973747300000000000000000000000000000081525060200191505060405180910390fd5b82336001600083815260200190815260200160002060008273ffffffffffffffffffffffffffffffffffffffff1673ffffffffffffffffffffffffffffffffffffffff16815260200190815260200160002060009054906101000a900460ff1615610cb6576040517f08c379a000000000000000000000000000000000000000000000000000000000815260040180806020018281038252600c8152602001807f6e6f74636f6e6669726d6564000000000000000000000000000000000000000081525060200191505060405180910390fd5b600180600087815260200190815260200160002060003373ffffffffffffffffffffffffffffffffffffffff1673ffffffffffffffffffffffffffffffffffffffff16815260200190815260200160002060006101000a81548160ff021916908315150217905550843373ffffffffffffffffffffffffffffffffffffffff167f4a504a94899432a9846e1aa406dceb1bcfd538bb839071d49d1e5e23f5be30ef60405160405180910390a3610d6b85610565565b5050505050565b6000341115610dca573373ffffffffffffffffffffffffffffffffffffffff167fe1fffcc4923d04b559f4d29a8bfc6cda04eb5b0d3c460751c2402c5c5cc9109c346040518082815260200191505060405180910390a25b565b60045481565b600082600073ffffffffffffffffffffffffffffffffffffffff168173ffffffffffffffffffffffffffffffffffffffff161415610e0f57600080fd5b600554915060405180606001604052808573ffffffffffffffffffffffffffffffffffffffff1681526020018481526020016000151581525060008084815260200190815260200160002060008201518160000160006101000a81548173ffffffffffffffffffffffffffffffffffffffff021916908373ffffffffffffffffffffffffffffffffffffffff1602179055506020820151816001015560408201518160020160006101000a81548160ff0219169083151502179055509050506001600560008282540192505081905550817fc0ba8fe4b176c1714197d43b9cc6bcf797a4a7461c5fe8d0ef6e184ae7601e5160405160405180910390a2509291505056fea2646970667358221220cf9cbb4276a11fadaf3f2f15d2d7a3bba077ee65e076405572a740b5a760216264736f6c63430006070033",
  "immutableReferences": {},
  "source": "pragma solidity 0.6.7;\n\ncontract MultisigWallet\n{\n\tevent Confirmation(address indexed sender, uint indexed transactionId);\n    event withdraw(address indexed to,uint value);\n    event Submission(uint indexed transactionId);\n    event Execution(uint indexed transactionId);\n    event ExecutionFailure(uint indexed transactionId);\n    event Deposit(address indexed sender, uint value);\n    uint constant public MAX_OWNER = 5;\n\n    mapping(uint=>Transaction) public transactions;\n    mapping(uint=>mapping(address=>bool)) public confirmations;\n    mapping(address=>bool) public isOwner;\n    address[] public owners;\n    uint public required;\n    uint public transactionCount;\n\n    struct Transaction\n    {\n    \taddress destination;\n    \tuint value;\n    \tbool executed;\n    }\n\n    modifier ownerDoesnotExist(address owner)\n    {\n    \trequire(!isOwner[owner]);\n    \t_;\n    }\n    modifier ownerExists(address owner)\n    {\n    \trequire(isOwner[owner],\"ownerExists\");\n    \t_;\n    }\n    modifier transactionExists(uint transactionId)\n    {\n    \trequire(transactions[transactionId].destination != address(0),\"transactionExists\");\n    \t_;\n    }\n    modifier confirmed(uint transactionId,address owner)\n    {\n    \trequire(confirmations[transactionId][owner]);\n    \t_;\n    }\n    modifier notconfirmed(uint transactionId,address owner)\n    {\n    \trequire(!confirmations[transactionId][owner],\"notconfirmed\");\n    \t_;\n    }\n    modifier notExecuted(uint transactionId)\n    {\n    \trequire(!transactions[transactionId].executed);\n    \t_;\n    }\n    modifier notNull(address _address)\n    {\n    \trequire(_address != address(0));\n    \t_;\n    }\n    modifier validRequirement(uint ownerCount,uint _require)\n    {\n    \trequire(ownerCount <= MAX_OWNER && _require <= ownerCount && _require !=0 && ownerCount !=0);\n    \t_;\n    }\n    function deposit() public payable\n    {\n    \tif(msg.value>0)\n    \t{\n    \t  emit\tDeposit(msg.sender,msg.value);\n    \t}\n    }\n\n    constructor(address[] memory _owners,uint _required) public\n    validRequirement(_owners.length,_required)\n    {\n    \tfor(uint i=0;i<_owners.length;i++)\n    \t{\n    \t\trequire(!isOwner[_owners[i]] && _owners[i] != address(0));\n    \t\tisOwner[_owners[i]] =true;\n    \t}\n    \towners = _owners;\n    \trequired = _required;\n    }\n\n    function submitTransaction(address destination,uint value) public returns(uint transactionId)\n    {\n      transactionId = addTransaction(destination,value);\n      confirmTransaction(transactionId);\n\n    }\n\n    function confirmTransaction(uint transactionId) public ownerExists(msg.sender) transactionExists(transactionId) notconfirmed(transactionId,msg.sender)\n    {\n    \tconfirmations[transactionId][msg.sender] = true;\n    \tConfirmation(msg.sender,transactionId);\n    \texecuteTransation(transactionId);\n    }\n\n    function addTransaction(address destination,uint value) internal notNull(destination) returns(uint transactionId) \n    {\n        transactionId = transactionCount;\n    \ttransactions[transactionId] = Transaction(destination,value,false);\n    \ttransactionCount +=1;\n    \tSubmission(transactionId);\n    }\n\n    function executeTransation(uint transactionId) public ownerExists(msg.sender) confirmed(transactionId,msg.sender) notExecuted(transactionId)\n    {\n    \tif(isConfirmed(transactionId))\n    \t{\n    \t\ttransactions[transactionId].executed = true;\n    \t\taddress payable to =  payable(transactions[transactionId].destination);\n    \t\tuint value_to = transactions[transactionId].value % address(this).balance;\n    \t\twithdraw(to,value_to);\n    \t\t// to.transfer(value_to);\n    \t\tExecution(transactionId);\n\n    \t}\n    \telse\n    \t{\n    \t\tExecutionFailure(transactionId);\n    \t\ttransactions[transactionId].executed = false;\n    \t}\n    }\n\n    function isConfirmed(uint transactionId)public view returns(bool)\n    {\n    \tuint count =0;\n    \tfor(uint i=0;i<owners.length;i++)\n    \t{\n    \t\tif(confirmations[transactionId][owners[i]])\n    \t\t{\n    \t\t\tcount +=1;\n    \t\t}\n    \t\tif(count == required)\n    \t\t{\n    \t\t\treturn true;\n    \t\t}\n    \t}\n    }\n\n    function getConfirmationCount(uint transactionId) public view returns(uint count)\n    {\n    \tfor(uint i=0;i<owners.length;i++)\n    \t{\n    \t\tif(confirmations[transactionId][owners[i]])\n    \t\t{\n    \t\t\tcount+=1;\n    \t\t}\n    \t}\n    }\n\n\n\n    \n}",
  "sourcePath": "/home/kheng/Desktop/Multisig_wallet/contracts/MultisigWallet.sol",
  "compiler": {
    "name": "solc",
    "version": "0.6.7+commit.b8d736ae.Emscripten.clang"
  },
  "schemaVersion": "3.2.0",
  "updatedAt": "2020-06-09T06:06:45.129Z",
  "networkType": "ethereum",
  "devdoc": {
    "methods": {}
  },
  "userdoc": {
    "methods": {}
  }
}